:020000040000FA
:10000000080E106E040E116E000E206E010E216E91
:10001000226EFF0E506E1AD8225017EF00F0200605
:10002000505C2126212A002A22501FEF00F0216077
:100030001FEF00F020660FEF00F064EF00F0215E8C
:10004000002A21601FEF00F017EF00F01150020DA1
:100050001050F3602EEF00F04AEF00F01150105CEA
:10006000316E10C030F030502102F3CF41F0F4CFA8
:1000700040F02002F350402641C021F040C020F063
:10008000300631502202F3CF22F0312E33EF00F050
:1000900063EF00F01150316E10C030F0305021028B
:1000A000F3CF41F0F4CF40F02002F350402441C0A0
:1000B00021F0300631502202F3CF22F0312E4EEFE4
:0800C00000F063EF00F01200F4
:0200C800000036
:020000040030CA
:0100010008F6
:010003001EDE
:00000001FF
